:020000040000FA
:060000008A110A12052816
:04000600003400348E
:06000A000030F0000A3096
:10001000F100203084008A110A1243208312031356
:1000200098171816831203138C1E142883120313B7
:1000300018199813831203131A08F2008000840A17
:10004000F00A83120313981818127108700203192A
:100050002E202E30720203192E200E288316031331
:1000600018128312031318168316031398168403A9
:100070000008831203130C1E3B28831203139900FC
:10008000F00B372808000030831203138B00003078
:10009000831603138C007130831603138F0007300F
:1000A000831603138100FF30831603138500FF308E
:1000B000831603138600FF30831603138700FF3077
:1000C0008316031388000F3083160313890024302E
:1000D00083160313980090308312031398000030A6
:1000E000831603178700193083160313990008003D
:02400E00F42F8D
:02401000FF3E71
:00000001FF
