:020000040000FA
:060000008A110A12052816
:04000600003400348E
:06000A000030F10020307F
:1000100084008A110A123A208312031398171816C3
:10002000831203138C1E12288312031318199813BA
:10003000831203131A08F2008000840AF10A831263
:100040000313981818122E307202031928200C2856
:1000500083120313181683160313981684030008DB
:10006000831203130C1E3228831203139900F10B21
:100070002E2808000030831203138B0000308316F3
:1000800003138C007130831603138F00073083161F
:1000900003138100FF30831603138500FF3083169E
:1000A00003138600FF30831603138700FF30831687
:1000B000031388000F30831603138900243083163E
:1000C00003139800903083120313980000308316B6
:0E00D0000317870019308316031399000800E8
:02400E00F42F8D
:02401000FF3E71
:00000001FF
